:100000000C94C7000C94E6000C94E6000C94E600F7
:100010000C94E6000C94E6000C94E6000C94E600C8
:100020000C94E6000C94E6000C94E6000C94E600B8
:100030000C94E6000C94E6000C94E6000C94E600A8
:100040000C94E6000C94E6000C94E6000C94E60098
:100050000C94E6000C94E6000C94E6000C94E60088
:100060000C94E6000C94E6000C94E6000C94E60078
:100070000C94E6000C94E6000C94E6000C94E60068
:100080000C94E6000C94E6000C94E6006E616E00A1
:10009000696E660000407A10F35A00A0724E18098B
:1000A0000010A5D4E80000E87648170000E40B54DF
:1000B000020000CA9A3B000000E1F50500008096AE
:1000C0009800000040420F000000A08601000000E0
:1000D000102700000000E80300000000640000009A
:1000E00000000A00000000000100000000002C7663
:1000F000D888DC674F0823DFC1DFAE59E1B1B7967E
:10010000E5E3E453C63AE651997696E8E6C28426DA
:10011000EB898C9B62ED407C6FFCEFBC9C9F40F2B6
:10012000BAA56FA5F490055A2AF75C936B6CF96732
:100130006DC11BFCE0E40D47FEF520E6B500D0EDF7
:10014000902E0300943577050080841E080000205F
:100150004E0A000000C80C333333330F986E1283FD
:100160001141EF8D2114893BE65516CFFEE6DB18D1
:10017000D1844B381BF77C1D901DA4BBE424203296
:1001800084725E228100C9F124ECA1E53D2711248F
:100190001FBECFEFD0E1DEBFCDBF12E0A0E0B1E0E7
:1001A000E6EAF5E300E00BBF02C007900D92AC3821
:1001B000B107D9F71AE0ACE8B2E001C01D92A83946
:1001C000B107E1F70E94E8000C94D11A0C940000EA
:1001D000DF93CF93CDB7DEB72C970FB6F894DEBF81
:1001E0000FBECDBFA1E3B0E0E1E3F0E08081817F0D
:1001F0008C931C821B8212C01A82198205C08981CD
:100200009A8101969A83898389819A81843691059E
:10021000B4F38B819C8101969C838B838B819C8121
:10022000843691054CF385E00E9404060E94100874
:1002300080E060E04FE722E00E94830880910001A7
:1002400090910101282F8091020190910301982F34
:1002500080E0622F44E0292F0E94830880910401EE
:1002600090910501282F8091060190910701982F08
:100270008BE7622F4FE7292F0E94830880910801A6
:1002800090910901382F80910A0190910B01482F1C
:1002900080910C0190910D01282F80910E01909179
:1002A0000F01982F832F642F422F292F0E9483083C
:1002B00080918C0290918D028130910591F4809112
:1002C0000C0190910D01039690930D0180930C0108
:1002D0008091080190910901039690930901809300
:1002E000080180918C0290918D02009791F4809189
:1002F0000C0190910D01039790930D0180930C01D7
:1003000080910801909109010397909309018093CE
:10031000080180918E0290918F0281309105C9F47D
:1003200080910A0190910B018330910594F08091A6
:100330000A0190910B01029790930B0180930A019F
:1003400080910E0190910F01029790930F0180937D
:100350000E0180918E0290918F02009781F480911E
:100360000A0190910B0190930B0180930A018091F7
:100370000E0190910F0190930F0180930E018091D7
:100380008E0290918F022FEF8F3F9207C9F48091D8
:100390000E0190910F018F33910594F480910A0121
:1003A00090910B01029690930B0180930A0180912A
:1003B0000E0190910F01029690930F0180930E0110
:1003C00080910C0190910D01803891052CF18CE306
:1003D00090E090930901809308018CE190E0909364
:1003E0000B0180930A0181E490E090930D018093CA
:1003F0000C0180E290E090930F0180930E01109227
:100400008D0210928C0210928F0210928E028091B7
:1004100010018F5F80931001809108019091090174
:1004200099232CF58CE390E09093090180930801C7
:100430008CE190E090930B0180930A0181E490E0BD
:1004400090930D0180930C0180E290E090930F0156
:1004500080930E0110928D0210928C0210928F02E6
:1004600010928E02809111018F5F80931101809113
:100470000C0190910D018A379105ECF020910A0151
:1004800030910B01809106019091070128173907DF
:1004900094F480910401909105019C012550304015
:1004A00080910A0190910B012817390724F41092CA
:1004B0008D0210928C028091080190910901863082
:1004C0009105FCF420910A0130910B018091020109
:1004D0009091030128173907A4F4809100019091AD
:1004E00001019C012550304080910A0190910B013F
:1004F0002817390734F481E090E090938D028093BF
:100500008C0280910C0190910D018A379105E4F0E5
:1005100080910601909107019C0129503040809103
:100520000A0190910B018217930774F480910401E2
:10053000909105019C01295F3F4F80910A019091A4
:100540000B01281739071CF18091080190910901CE
:100550008630910504F580910201909103019C0180
:100560002950304080910A0190910B018217930726
:1005700094F480910001909101019C01295F3F4F0B
:1005800080910A0190910B012817390724F41092E9
:100590008F0210928E0280910C0190910D018A378A
:1005A0009105E4F080910601909107019C012C5087
:1005B000304080910A0190910B018217930774F4E7
:1005C00080910401909105019C012550304080915B
:1005D0000A0190910B012817390754F18091080105
:1005E0009091090186309105E4F480910201909187
:1005F00003019C012C50304080910A0190910B0125
:100600008217930774F480910001909101019C017D
:100610002550304080910A0190910B01281739072D
:100620003CF080910E0190910F018F33910534F0D1
:1006300081E090E090938F0280938E0280910C0174
:1006400090910D018A379105CCF020910A013091EB
:100650000B0180910601909107012817390774F466
:1006600080910401909105019C01245F3F4F80918E
:100670000A0190910B01281739073CF1809108017C
:100680009091090186309105CCF420910A013091B6
:100690000B0180910201909103012817390774F42E
:1006A00080910001909101019C01245F3F4F809156
:1006B0000A0190910B01281739073CF080910A013B
:1006C00090910B018330910534F48FEF9FEF90935D
:1006D0008F0280938E028091100164E144E00E94B9
:1006E000A009809111016CE644E00E94A009E0E3BA
:1006F000F0E08081882F90E0887090700097C9F4B6
:1007000080910001909101018230910594F08091D7
:1007100002019091030102979093030180930201DB
:1007200080910001909101010297909301018093C3
:100730000001E0E3F0E08081882F90E0827090700B
:100740000097C9F480910201909103018F339105C4
:1007500094F4809102019091030102969093030119
:100760008093020180910001909101010296909383
:100770000101809300010E94DD182BE030E0B901F7
:100780000E942418843091050CF44EC0809104011D
:10079000909105019C01265F3F4F80910E01909141
:1007A0000F0182179307CCF4809104019091050109
:1007B0008230910594F08091060190910701029793
:1007C00090930701809306018091040190910501A7
:1007D0000297909305018093040180910401909108
:1007E00005019C01265F3F4F80910E0190910F0102
:1007F00028173907CCF480910601909107018F33B7
:10080000910594F4809106019091070102969093CE
:1008100007018093060180910401909105010296E1
:1008200090930501809304010E94340B8091100184
:100830008333A0F0CE01059622E131E0B90147E013
:1008400050E00E94D019CE01059662E34EE10E946D
:10085000150A0E94340B1C861B8618C0809111015A
:10086000833308F4E3CCCE01059629E131E0B901E8
:1008700048E050E00E94D019CE0105966DE24EE1AD
:100880000E94150A0E94340B1C861B868B859C8552
:100890002C960FB6F894DEBF0FBECDBFCF91DF917F
:1008A0000895DF93CF930F92CDB7DEB78983898107
:1008B000809390020F90CF91DF910895DF93CF93B3
:1008C000CDB7DEB7AA970FB6F894DEBF0FBECDBF87
:1008D000A4E3B0E0E4E3F0E080818F618C9380E0FA
:1008E00090E0A0EFB1E48FA398A7A9A7BAA76FA142
:1008F00078A589A59AA520E030E04AEF54E40E944B
:10090000F010DC01CB018BA39CA3ADA3BEA36BA114
:100910007CA18DA19EA120E030E040E85FE30E9431
:100920004A1288232CF481E090E09AA389A33FC067
:100930006BA17CA18DA19EA120E03FEF4FE757E482
:100940000E94EA1118164CF56FA178A589A59AA501
:1009500020E030E040E251E40E94F010DC01CB01E5
:10096000BC01CD010E941A0FDC01CB019AA389A31F
:100970000FC088EC90E098A38F8F8F8D98A101977E
:10098000F1F798A38F8F89A19AA101979AA389A3C0
:1009900089A19AA1009769F714C06BA17CA18DA1D0
:1009A0009EA10E941A0FDC01CB019AA389A389A101
:1009B0009AA19E8F8D8F8D8D9E8D0197F1F79E8FC1
:1009C0008D8FA5E3B0E0E5E3F0E080818E7F8C932E
:1009D00080E090E0A0EFB1E4898F9A8FAB8FBC8F5D
:1009E000698D7A8D8B8D9C8D20E030E04AEF54E448
:1009F0000E94F010DC01CB018D8B9E8BAF8BB88FEA
:100A00006D897E898F89988D20E030E040E85FE332
:100A10000E944A1288232CF481E090E09C8B8B8BFF
:100A20003FC06D897E898F89988D20E03FEF4FE729
:100A300057E40E94EA1118164CF5698D7A8D8B8D5A
:100A40009C8D20E030E040E251E40E94F010DC0197
:100A5000CB01BC01CD010E941A0FDC01CB019C8BA4
:100A60008B8B0FC088EC90E09A8B898B89899A894F
:100A70000197F1F79A8B898B8B899C8901979C8BC5
:100A80008B8B8B899C89009769F714C06D897E894F
:100A90008F89988D0E941A0FDC01CB019C8B8B8B68
:100AA0008B899C89988B8F878F8598890197F1F71F
:100AB000988B8F87A5E3B0E0E5E3F0E0808181606B
:100AC0008C9380E090E0A0EFB1E48B879C87AD87AA
:100AD000BE876B857C858D859E8520E030E04AEF62
:100AE00054E40E94F010DC01CB018F839887A98722
:100AF000BA876F81788589859A8520E030E040E863
:100B00005FE30E944A1288232CF481E090E09E83E8
:100B10008D833FC06F81788589859A8520E03FEF7E
:100B20004FE757E40E94EA1118164CF56B857C8557
:100B30008D859E8520E030E040E251E40E94F01077
:100B4000DC01CB01BC01CD010E941A0FDC01CB01FD
:100B50009E838D830FC088EC90E09C838B838B8178
:100B60009C810197F1F79C838B838D819E810197F6
:100B70009E838D838D819E81009769F714C06F815C
:100B8000788589859A850E941A0FDC01CB019E83A6
:100B90008D838D819E819A83898389819A81019732
:100BA000F1F79A8389838BEE60E00E94130683E25B
:100BB00060E00E94130681E860E00E94130684E66C
:100BC00060E00E9413068FEA60E00E9413068CEC3E
:100BD00060E00E94130680919002882F90E082705E
:100BE0009070009721F087EA60E00E9413060E944F
:100BF00010080E94340BAA960FB6F894DEBF0FBE01
:100C0000CDBFCF91DF910895DF93CF930F92CDB7F2
:100C1000DEB7898389810E9451040E945E040F908F
:100C2000CF91DF910895DF93CF9300D000D000D013
:100C3000CDB7DEB78D836E83A5E3B0E0E5E3F0E0EA
:100C400080818D7F8C938E81813041F4A5E3B0E06B
:100C5000E5E3F0E0808184608C9307C0A5E3B0E019
:100C6000E5E3F0E080818B7F8C931A82198245C086
:100C70008D81482F50E027E030E089819A81B901C9
:100C8000681B790BCB019A0102C0359527958A958F
:100C9000E2F7C90181709070882341F0A5E3B0E0CC
:100CA000E5E3F0E0808188608C9307C0A5E3B0E0C5
:100CB000E5E3F0E08081877F8C93A5E3B0E0E5E396
:100CC000F0E0808180618C931C821B8205C08B8147
:100CD0009C8101969C838B838B819C8184309105C0
:100CE000B4F3A5E3B0E0E5E3F0E080818F7E8C9380
:100CF00089819A8101969A83898389819A81883032
:100D000091050CF4B5CFA5E3B0E0E5E3F0E0808118
:100D100082608C9326960FB6F894DEBF0FBECDBFCF
:100D2000CF91DF910895DF93CF93CDB7DEB785EAFA
:100D300060E00E941306CF91DF910895DF93CF9377
:100D40000F92CDB7DEB780919002882F90E082702D
:100D50009070009731F0809190028B7F8093900289
:100D600005C08091900282608093900280919002F1
:100D7000882F90E082709070181619061CF487EA8C
:100D8000898302C086EA8983898160E00E94130614
:100D90000F90CF91DF910895DF93CF9300D000D0D3
:100DA000CDB7DEB78B836C8380919002882F90E063
:100DB00081709070009709F043C08B81803408F0F7
:100DC00085C08C8188230CF481C08B81482F469587
:100DD00046954695842F90E09C013695322F222728
:100DE000379527958C81882F90E0B901680F791F7E
:100DF000842F90E09C013695322F22273795279536
:100E00008C81882F90E0820F931FFC01E856F94FE8
:100E10008081482F8B81882F90E0809590959C0150
:100E20002770307081E090E0022E02C0880F991F79
:100E30000A94E2F7842BFB01E856F94F808346C001
:100E40008B818A838C81898389818B839FE78A81C7
:100E5000292F281B822F8C838B81482F46954695FE
:100E60004695842F90E09C013695322F22273795A6
:100E700027958C81882F90E0B901680F791F842F06
:100E800090E09C013695322F2227379527958C814B
:100E9000882F90E0820F931FFC01E856F94F808164
:100EA000482F8B81882F90E0809590959C0127702A
:100EB000307081E090E0022E02C0880F991F0A94E2
:100EC000E2F7842BFB01E856F94F80830F900F90D7
:100ED0000F900F90CF91DF910895DF93CF9300D0C3
:100EE00000D0CDB7DEB78B836C8380919002882FC2
:100EF00090E081709070009709F044C08B8180343D
:100F000008F087C08C8188230CF483C08B81482F24
:100F1000469546954695842F90E09C013695322F54
:100F20002227379527958C81882F90E0B901680F8B
:100F3000791F842F90E09C013695322F2227379518
:100F400027958C81882F90E0820F931FFC01E85633
:100F5000F94F8081482F8B81882F90E08095909564
:100F60009C012770307081E090E0022E02C0880F53
:100F7000991F0A94E2F780958423FB01E856F94F04
:100F8000808347C08B818A838C81898389818B830D
:100F90009FE78A81292F281B822F8C838B81482FE2
:100FA000469546954695842F90E09C013695322FC4
:100FB0002227379527958C81882F90E0B901680FFB
:100FC000791F842F90E09C013695322F2227379588
:100FD00027958C81882F90E0820F931FFC01E856A3
:100FE000F94F8081482F8B81882F90E080959095D4
:100FF0009C012770307081E090E0022E02C0880FC3
:10100000991F0A94E2F780958423FB01E856F94F73
:1010100080830F900F900F900F90CF91DF910895E4
:10102000DF93CF93CDB7DEB788E996E060E070E05C
:1010300040E054E00E94D919CF91DF910895DF93E9
:10104000CF9300D000D000D0CDB7DEB78B836C83B8
:101050004D832E838C818A8311C08B81898307C045
:1010600089816A810E946D0789818F5F8983998157
:101070008D819817A8F38A818F5F8A839A818E81E8
:10108000981758F326960FB6F894DEBF0FBECDBF63
:10109000CF91DF910895DF93CF9300D000D000D09F
:1010A000CDB7DEB78B836C834D832E838B818A8390
:1010B0000BC08A816C810E94CC068A816E810E945D
:1010C000CC068A818F5F8A839A818D81891788F700
:1010D0008C8189830BC08B8169810E94CC068D81B4
:1010E00069810E94CC0689818F5F898399818E8175
:1010F000891788F726960FB6F894DEBF0FBECDBFCE
:10110000CF91DF910895DF93CF9300D000D000D02E
:10111000CDB7DEB78B836C834D832E839B818D810E
:10112000891740F4CE0103969E012B5F3F4FB90112
:101130000E94F80E9C818E81891740F4CE0104969E
:101140009E012A5F3F4FB9010E94F80E8B818A836E
:1011500011C08C81898307C08A8169810E94CC0675
:1011600089818F5F89839E8189819817A8F78A81F9
:101170008F5F8A839D818A81981758F726960FB6CC
:10118000F894DEBF0FBECDBFCF91DF910895DF93FE
:10119000CF93CDB7DEB76A970FB6F894DEBF0FBE18
:1011A000CDBF8D876E874F87288B8F85282F30E0A6
:1011B0008D85882F90E0A901481B590BCA019C8797
:1011C0008B878B859C8599233CF48B859C8590959A
:1011D00081959F4F9C878B879D858F85981728F4D5
:1011E00081E090E09E8B8D8B04C04FEF5FEF5E8BB4
:1011F0004D8B8D899E899A8789878889282F30E031
:101200008E85882F90E0A901481B590BCA01988749
:101210008F838F81988599233CF48F819885909551
:1012200081959F4F98878F839E858889981728F48A
:1012300081E090E09C8B8B8B04C04FEF5FEF5C8B69
:101240004B8B8B899C899E838D832B853C858F81DD
:10125000988582179307BCF08F819885909581952A
:101260009F4F988F8F8B4F89588D55232CF48F89E2
:10127000988D0196988F8F8B8F89988D95958795EE
:101280009A8B898B13C08B859C859A8F898F498D0A
:101290005A8D55232CF4898D9A8D01969A8F898FBA
:1012A000898D9A8D959587959A8B898B49895A89CD
:1012B0005C834B838D856E850E94CC069D858F85D2
:1012C000981721F49E858889981789F18B819C81D4
:1012D0009A8389838B859C8522273327281B390B8A
:1012E00089819A812817390774F42B813C818F8179
:1012F0009885A901481B590BCA019C838B8399854A
:101300008D85890F8D8729813A818F81988528174E
:10131000390784F62B813C818B859C85820F931F36
:101320009C838B839D818E85890F8E87C3CF6A9620
:101330000FB6F894DEBF0FBECDBFCF91DF910895F9
:10134000DF93CF93CDB7DEB728970FB6F894DEBF03
:101350000FBECDBF8E836F8348871D828E810E9412
:10136000C30B9C838B831A8250C080919002882F7C
:1013700090E084709070009771F08A81282F30E09F
:101380008B819C81FC01E20FF31F8081882319F47B
:101390008D818F5F8D838A81282F30E08B819C81A6
:1013A000FC01E20FF31F8081882361F1198227C0BD
:1013B0008A81282F30E08B819C81FC01E20FF31F92
:1013C0008081282F30E08981882F90E0A90102C018
:1013D000559547958A95E2F7CA01817090708823E8
:1013E00059F09A818F81292F280F99818885980F2C
:1013F000822F692F0E94CC0689818F5F8983898122
:101400008830B0F28A818F5F8A838A81853008F4C0
:10141000ACCF8D81882F90E028960FB6F894DEBF70
:101420000FBECDBFCF91DF910895DF93CF9300D052
:1014300000D000D0CDB7DEB79C838B836D834E8305
:101440001A8219822CC0EB81FC818081803221F4C8
:101450008A818D5F8A831EC0EB81FC8180818A3006
:1014600029F41A828981875F898314C0EB81FC810A
:1014700030819D818A81292F280F9E818981980F33
:10148000832F622F492F0E94A009982F8A81891BE0
:101490008A5F8A838B819C8101969C838B83EB81FD
:1014A000FC818081882379F626960FB6F894DEBFFA
:1014B0000FBECDBFCF91DF910895DF93CF93CDB70E
:1014C000DEB72C970FB6F894DEBF0FBECDBF9A875C
:1014D000898718861F8289859A859E838D830AC095
:1014E0008F819885019698878F8389859A85019643
:1014F0009A878987E985FA858081882389F78D8194
:101500009E819A87898780919002882F90E08470CD
:101510009070009709F440C018861F822FC0E9859B
:10152000FA8580810E94C30B9C838B8384E090E0CA
:101530009A8389830FC029813A818B819C81FC0128
:10154000E20FF31F8081882349F489819A810197F2
:101550009A83898389819A8199236CF789819A81F9
:101560009C012E5F3F4F8F819885820F931F988734
:101570008F8389859A8501969A878987E985FA8577
:101580008081882361F68D819E819A8789874F812A
:1015900058855C874B870CC08F8198859C01220FF2
:1015A000331F220F331FA901480F591F5C874B8738
:1015B0008B859C852C960FB6F894DEBF0FBECDBFF1
:1015C000CF91DF9108950F93DF93CF93CDB7DEB71F
:1015D00028970FB6F894DEBF0FBECDBF9C838B83D8
:1015E0006D834E832F8308871A8230C0198227C0EB
:1015F0008A81282F30E08B819C81FC01E20FF31F50
:101600008081282F30E08981882F90E0A90102C0D5
:10161000559547958A95E2F7CA01817090708823A5
:1016200059F09A818D81292F280F99818E81980FE9
:10163000822F692F0E94CC0689818F5F89839981CF
:1016400088859817A8F28A818F5F8A839A818F8113
:10165000981760F228960FB6F894DEBF0FBECDBF84
:10166000CF91DF910F910895DF93CF9300D000D0F9
:10167000CDB7DEB787E090E09C838B8334C09B813D
:1016800087E0891B806B60E00E94130680E160E0C8
:101690000E94130684E060E00E9413061A821982F9
:1016A00018C08B819C819C013695322F222737955B
:1016B000279589819A81820F931FFC01E856F94F83
:1016C000808161E00E94130689819A8101969A8344
:1016D000898389819A81803891051CF38B819C8153
:1016E00001979C838B838B819C81992344F688E9A5
:1016F00092E028E936E0B90140E054E00E94D019B8
:101700000F900F900F900F90CF91DF910895DF937E
:10171000CF9300D0CDB7DEB780919002882F90E0B4
:1017200081709070181619062CF480E890E09A8366
:10173000898304C080E490E09A83898389819A81B7
:101740000F900F90CF91DF910895DF93CF9300D04A
:10175000CDB7DEB780919002882F90E081709070B5
:10176000181619062CF480E490E09A83898304C04B
:1017700080E890E09A83898389819A810F900F9005
:10178000CF91DF910895DF93CF9300D000D00F92D7
:10179000CDB7DEB789838981282F30E03D832C8344
:1017A0008C819D818435910509F479C22C813D811C
:1017B000253531050CF0EDC08C819D818334910578
:1017C00009F4C3C12C813D81243431050CF080C063
:1017D0008C819D818533910509F4C0C22C813D81A6
:1017E000263331050CF043C08C819D8181339105F6
:1017F00009F4A0C22C813D81223331055CF58C8136
:101800009D818D32910509F4CCC22C813D812E320F
:1018100031059CF48C819D818232910509F4C6C208
:101820002C813D812C32310509F4B6C28C819D8119
:101830008132910509F4BFC2CDC22C813D812E3287
:10184000310509F4A4C28C819D818033910509F48E
:101850006CC2C0C22C813D812333310509F474C2AE
:101860008C819D81843391050CF073C268C22C81F8
:101870003D812933310509F485C28C819D818A33EC
:1018800091056CF42C813D812733310509F470C238
:101890008C819D81883391050CF06FC264C22C81CC
:1018A0003D812134310509F43CC18C819D81823414
:1018B00091050CF040C12C813D812A33310509F49A
:1018C00084C28C819D818F33910509F479C282C2D3
:1018D0002C813D812B34310509F487C18C819D8198
:1018E0008C3491052CF52C813D812734310509F488
:1018F00054C18C819D81883491056CF42C813D818B
:101900002534310509F435C18C819D8186349105DA
:101910000CF039C124C12C813D812934310509F4F1
:1019200050C18C819D818A3491050CF054C13FC116
:101930002C813D812F34310509F47FC18C819D813B
:10194000803591056CF42C813D812D34310509F4ED
:1019500060C18C819D818E3491050CF064C14FC1B2
:101960002C813D812135310509F47BC18C819D811C
:10197000813591050CF46BC12C813D8122353105F7
:1019800009F479C18C819D818335910509F47DC16C
:1019900021C22C813D812A36310509F421C18C8177
:1019A0009D818B3691050CF05BC02C813D812236E8
:1019B000310509F4C5C08C819D81833691055CF5A4
:1019C0002C813D812835310509F491C18C819D819F
:1019D000893591056CF42C813D812635310509F45A
:1019E00072C18C819D81873591050CF076C161C1F2
:1019F0002C813D812A35310509F48DC18C819D8171
:101A00008A3591050CF47DC12C813D81213631054B
:101A100009F48CC0DFC18C819D818636910509F463
:101A2000B7C02C813D81273631056CF48C819D81B6
:101A30008436910509F498C02C813D812536310505
:101A40000CF09CC087C08C819D818836910509F47B
:101A5000B3C02C813D81293631050CF0B7C0A2C03E
:101A60008C819D818237910509F40AC12C813D81C9
:101A7000233731052CF58C819D818E36910509F433
:101A8000D7C02C813D812F3631056CF48C819D812E
:101A90008C36910509F4B8C02C813D812D36310575
:101AA0000CF0BCC0A7C08C819D818037910509F4E2
:101AB000D3C02C813D81213731050CF0D7C0C2C085
:101AC0008C819D818637910509F402C12C813D816D
:101AD000273731056CF48C819D818437910509F499
:101AE000E3C02C813D81253731050CF0E7C0D2C021
:101AF0008C819D818837910509F4FEC02C813D8140
:101B0000283731050CF4EEC08C819D818937910511
:101B100009F4FCC02C813D812A37310509F400C14C
:101B200059C181E291E09B838A8358C126E231E06A
:101B30003B832A8353C18BE291E09B838A834EC10E
:101B400020E331E03B832A8349C185E391E09B8315
:101B50008A8344C12AE331E03B832A833FC18FE378
:101B600091E09B838A833AC124E431E03B832A835A
:101B700035C189E491E09B838A8330C12EE431E052
:101B80003B832A832BC183E591E09B838A8326C113
:101B900028E531E03B832A8321C18DE591E09B83D9
:101BA0008A831CC122E631E03B832A8317C187E682
:101BB00091E09B838A8312C12CE631E03B832A8328
:101BC0000DC181E791E09B838A8308C126E731E05C
:101BD0003B832A8303C18BE791E09B838A83FEC00A
:101BE00020E831E03B832A83F9C085E891E09B83BC
:101BF0008A83F4C02AE831E03B832A83EFC08FE870
:101C000091E09B838A83EAC024E931E03B832A8305
:101C1000E5C089E991E09B838A83E0C02EE931E049
:101C20003B832A83DBC083EA91E09B838A83D6C00F
:101C300028EA31E03B832A83D1C08DEA91E09B837F
:101C40008A83CCC022EB31E03B832A83C7C087EB79
:101C500091E09B838A83C2C02CEB31E03B832A83D3
:101C6000BDC081EC91E09B838A83B8C026EC31E053
:101C70003B832A83B3C08BEC91E09B838A83AEC005
:101C800020ED31E03B832A83A9C085ED91E09B8361
:101C90008A83A4C02AED31E03B832A839FC08FED65
:101CA00091E09B838A839AC024EE31E03B832A83B0
:101CB00095C089EE91E09B838A8390C02EEE31E03F
:101CC0003B832A838BC083EF91E09B838A8386C00A
:101CD00028EF31E03B832A8381C08DEF91E09B8325
:101CE0008A837CC022E032E03B832A8377C087E08E
:101CF00092E09B838A8372C02CE032E03B832A838C
:101D00006DC081E192E09B838A8368C026E132E066
:101D10003B832A8363C08BE192E09B838A835EC00E
:101D200020E232E03B832A8359C085E292E09B8324
:101D30008A8354C02AE232E03B832A834FC08FE279
:101D400092E09B838A834AC024E332E03B832A8368
:101D500045C089E392E09B838A8340C02EE332E052
:101D60003B832A833BC083E492E09B838A8336C013
:101D700028E432E03B832A8331C08DE492E09B83E8
:101D80008A832CC022E532E03B832A8327C087E583
:101D900092E09B838A8322C02CE532E03B832A8336
:101DA0001DC081E692E09B838A8318C026E632E05C
:101DB0003B832A8313C080E792E09B838A830EC013
:101DC00025E732E03B832A8309C08AE792E09B83C0
:101DD0008A8304C021E932E03B832A838A819B8184
:101DE0000F900F900F900F900F90CF91DF9108956B
:101DF000DF93CF9300D000D00F92CDB7DEB79B8397
:101E00008A837D836C83EA81FB8180818983EC8175
:101E1000FD818081EA81FB818083EC81FD81898164
:101E2000808319820F900F900F900F900F90CF9199
:101E3000DF910895EF92FF920F931F937B018C0126
:101E400020E030E040E05FE40E941A1288238CF02A
:101E5000C801B70120E030E040E05FE40E9492104A
:101E60000E947A129B01AC01205030404040504803
:101E700006C0C801B7010E947A129B01AC01B901EA
:101E8000CA011F910F91FF90EF900895A0E0B0E07C
:101E9000ECE4FFE00C944B18DC012B01FA019C915F
:101EA000923008F439C1EB018881823008F433C1E3
:101EB000943069F4843009F02FC111969C911197E8
:101EC0008981981709F428C1AFE7B2E025C18430B1
:101ED00009F421C18230A9F4923009F01DC19A01A0
:101EE000AD0188E0EA010990AE01E90109929E0185
:101EF0008150C1F7E201898111969C9189238183E8
:101F000008C1923009F407C112962D903C901397A6
:101F1000EB018A819B811496AD90BD90CD90DC90B1
:101F20001797EC80FD800E811F819101281B390BD2
:101F3000B90137FF04C066277727621B730B603235
:101F400071050CF061C0121613066CF537014801DB
:101F5000062E04C096948794779467940A94D2F7D7
:101F600021E030E040E050E004C0220F331F441F66
:101F7000551F6A95D2F721503040404050402E21E5
:101F80003F2140235123211531054105510521F001
:101F900021E030E040E050E079018A01E628F728AE
:101FA000082919293CC0232BD1F1260E371E3501F3
:101FB0004601062E04C096948794779467940A94F9
:101FC000D2F721E030E040E050E004C0220F331FA0
:101FD000441F551F6A95D2F7215030404040504071
:101FE0002A213B214C215D21211531054105510557
:101FF00021F021E030E040E050E059016A01A628DC
:10200000B728C828D9280BC0821593052CF01C01CD
:10201000AA24BB24650103C0EE24FF248701119686
:102020009C91D20111968C91981709F445C099237F
:1020300039F0A80197012A193B094C095D0906C02E
:10204000A60195012E193F09400B510B57FD08C001
:1020500011823382228224833583468357831DC0B5
:1020600081E081833382228288279927DC01821BC9
:10207000930BA40BB50B84839583A683B7830DC004
:10208000220F331F441F551F2483358346835783F4
:102090008281938101979383828324813581468154
:1020A0005781DA01C9010197A109B1098F5F9F4FDB
:1020B000AF4FBF4328F30BC0918333822282EA0CD7
:1020C000FB1C0C1D1D1DE482F5820683178383E033
:1020D0008083248135814681578157FF1AC0C90109
:1020E000AA2797FDA095BA2F81709070A070B0704C
:1020F0005695479537952795822B932BA42BB52B77
:1021000084839583A683B783828193810196938389
:102110008283DF0101C0D201CD01CDB7DEB7E2E19C
:102120000C946718A0E2B0E0E8E9F0E10C945718CD
:1021300069837A838B839C832D833E834F83588767
:10214000E9E0EE2EF12CEC0EFD1ECE010196B7015A
:102150000E94A3138E010F5E1F4FCE010596B8019A
:102160000E94A3138A8991E089278A8BC701B8014D
:10217000AE01475E5F4F0E94460F0E94CE12A096AE
:10218000E6E00C947318A0E2B0E0E9ECF0E10C9406
:10219000571869837A838B839C832D833E834F8377
:1021A0005887F9E0EF2EF12CEC0EFD1ECE010196C2
:1021B000B7010E94A3138E010F5E1F4FCE0105963B
:1021C000B8010E94A313C701B801AE01475E5F4F7B
:1021D0000E94460F0E94CE12A096E6E00C9473185F
:1021E000A0E2B0E0E6EFF0E10C944B1869837A834B
:1021F0008B839C832D833E834F835887CE0101962A
:10220000BE01675F7F4F0E94A313CE010596BE01FA
:102210006F5E7F4F0E94A3139985923088F0898961
:102220008230C8F0943019F4823051F404C0843004
:1022300029F4923081F48FE792E0C6C0923049F4DD
:1022400020E09A858A89981321E02A87CE01099691
:10225000BBC0823049F420E09A858A89981321E036
:102260002A8BCE014196B0C02D843E844F8458887D
:102270006D887E888F88988CEE24FF248701AA249D
:10228000BB24650140E050E060E070E0E0E0F0E099
:10229000C10181709070892BE9F0E60CF71C081DD4
:1022A000191D9A01AB012A0D3B1D4C1D5D1D80E0DF
:1022B00090E0A0E0B0E0E614F7040805190520F46A
:1022C00081E090E0A0E0B0E0BA01A901480F591FF9
:1022D0006A1F7B1FAA0CBB1CCC1CDD1C97FE08C010
:1022E00081E090E0A0E0B0E0A82AB92ACA2ADB2A5F
:1022F0003196E032F10549F0660C771C881C991C78
:102300005694479437942794C3CFFA85EA892B894A
:102310003C898B859C85280F391F2E5F3F4F17C046
:10232000CA0181709070892B61F016950795F7941A
:10233000E79480E090E0A0E0B0E8E82AF92A0A2BD0
:102340001B2B76956795579547952F5F3F4F77FDE8
:10235000E7CF0CC0440F551F661F771F17FD416064
:10236000EE0CFF1C001F111F21503040403090E048
:10237000590790E0690790E4790760F32B8F3C8F51
:10238000DB01CA018F779070A070B0708034910526
:10239000A105B10561F447FD0AC0E114F10401058E
:1023A000110529F0405C5F4F6F4F7F4F40781A8EC8
:1023B000FE1711F081E08A8F4D8F5E8F6F8F78A3AB
:1023C00083E0898FCE0149960E94CE12A096E2E169
:1023D0000C946718A8E1B0E0E0EFF1E10C94571815
:1023E00069837A838B839C832D833E834F835887B5
:1023F00089E0E82EF12CEC0EFD1ECE010196B7010E
:102400000E94A3138E010F5E1F4FCE010596B801E7
:102410000E94A3138985823040F08989823028F098
:10242000C701B8010E941B1401C08FEF6896E6E057
:102430000C947318A8E1B0E0E0E2F2E10C945718B4
:1024400069837A838B839C832D833E834F83588754
:1024500089E0E82EF12CEC0EFD1ECE010196B701AD
:102460000E94A3138E010F5E1F4FCE010596B80187
:102470000E94A3138985823040F08989823028F038
:10248000C701B8010E941B1401C08FEF6896E6E0F7
:102490000C947318A8E1B0E0E0E5F2E10C94571851
:1024A00069837A838B839C832D833E834F835887F4
:1024B00089E0E82EF12CEC0EFD1ECE010196B7014D
:1024C0000E94A3138E010F5E1F4FCE010596B80127
:1024D0000E94A3138985823040F08989823028F0D8
:1024E000C701B8010E941B1401C081E06896E6E0B4
:1024F0000C947318ACE0B0E0E0E8F2E10C945B18E7
:1025000069837A838B839C83CE010196BE016B5FC6
:102510007F4F0E94A3138D81823061F1823050F190
:10252000843021F48E81882351F12EC02F8138858B
:1025300037FD20C06E812F3131051CF06623F9F084
:1025400023C08EE190E0821B930B29853A854B8551
:102550005C8504C056954795379527958A95D2F79F
:102560006623B1F050954095309521953F4F4F4FE0
:102570005F4F0EC020E030E040E050E009C02FEF98
:102580003FEF4FEF5FE704C020E030E040E050E86D
:10259000B901CA012C96E2E00C947718DF92EF9211
:1025A000FF920F931F93FC01E480F5800681178151
:1025B000D1808081823048F480E090E0A0E1B0E0FA
:1025C000E82AF92A0A2B1B2BA5C0843009F49FC0E6
:1025D000823021F4EE24FF24870105C0E114F104C8
:1025E0000105110519F4E0E0F0E096C06281738105
:1025F0009FEF623879070CF05BC022E83FEF261BA3
:10260000370B2A3131052CF020E030E040E050E07B
:102610002AC0B801A701022E04C076956795579588
:1026200047950A94D2F781E090E0A0E0B0E004C0C2
:10263000880F991FAA1FBB1F2A95D2F70197A109DE
:10264000B1098E219F21A023B1230097A105B105D7
:1026500021F081E090E0A0E0B0E09A01AB01282BEE
:10266000392B4A2B5B2BDA01C9018F779070A07050
:10267000B07080349105A105B10539F427FF09C078
:10268000205C3F4F4F4F5F4F04C0215C3F4F4F4F87
:102690005F4FE0E0F0E02030A0E03A07A0E04A071A
:1026A000A0E45A0710F0E1E0F0E079018A0127C0C8
:1026B0006038710564F5FB01E158FF4FD801C7018F
:1026C0008F779070A070B07080349105A105B1052E
:1026D00039F4E7FE0DC080E490E0A0E0B0E004C073
:1026E0008FE390E0A0E0B0E0E80EF91E0A1F1B1F88
:1026F00017FF05C016950795F794E794319687E084
:1027000016950795F794E7948A95D1F705C0EE24BE
:10271000FF248701EFEFF0E06E2F6795662767953E
:10272000902F9F77D794DD24D7948E2F8695492FAD
:10273000462B582F5D29B701CA011F910F91FF90B9
:10274000EF90DF900895FC01DB01408151812281EF
:10275000622F6F7770E0221F2227221F9381892F1B
:10276000880F822B282F30E0991F9927991F1196E7
:102770009C93119721153105A9F541155105610566
:10278000710511F482E037C082E89FEF13969C93A5
:102790008E9312979A01AB0167E0220F331F441FFB
:1027A000551F6A95D1F783E08C930DC0220F331F1C
:1027B000441F551F12968D919C9113970197139664
:1027C0009C938E931297203080E0380780E0480772
:1027D00080E4580758F314962D933D934D935C93E2
:1027E000179708952F3F310579F44115510561057B
:1027F000710519F484E08C93089564FF03C081E0AF
:102800008C9312C01C9210C02F57304013963C93EB
:102810002E93129783E08C9387E0440F551F661F19
:10282000771F8A95D1F7706414964D935D936D93DD
:102830007C93179708951F93DC01FB019C919230C4
:1028400008F447C08081823008F443C0943051F4CA
:1028500011961C91843099F58181682F70E0611B7D
:1028600071093FC0843021F0923031F48230B9F1E7
:102870008181882389F12DC011961C911197823096
:10288000F1F081811817D9F412962D913C9113978C
:10289000828193818217930794F028173907BCF03F
:1028A00014968D919D910D90BC91A02D2481358120
:1028B00046815781281739074A075B0718F4112307
:1028C00041F00AC082179307A407B50740F411230B
:1028D00019F061E070E005C06FEF7FEF02C060E0CB
:1028E00070E0CB011F9108952F923F924F925F921B
:1028F0006F927F928F929F92AF92BF92CF92DF9210
:10290000EF92FF920F931F93DF93CF93CDB7DEB774
:1029100061970FB6F894DEBF0FBECDBF3C017F8735
:102920006E876A01FC0117821682838181FD03C0D4
:102930006FEF7FEF6FC39E012F5F3F4F398B288B67
:10294000F3012381EE85FF8523FD859123FF81918E
:10295000FF87EE87882309F45AC3853251F4EE8548
:10296000FF8523FD859123FF8191FF87EE878532C7
:1029700029F490E0B3010E94EB19E2CF982F10E008
:10298000882499241032B0F49B3269F09C3228F4E8
:10299000903251F0933271F40BC09D3239F0903384
:1029A00049F4116028C01260146025C0186023C06B
:1029B000106121C017FD2AC0892F80538A3078F416
:1029C00016FF06C0FAE09F9E902C1124980E13C0AB
:1029D0003AE0839E802C1124880E10620CC09E3237
:1029E00021F416FD14C3106406C09C3611F410685F
:1029F00002C0983659F4EE85FF8523FD959123FF9B
:102A00009191FF87EE87992309F0BCCF892F8554D8
:102A1000833020F4812F8061905E07C0892F855616
:102A2000833008F09FC1812F8F7E86FD02C076E043
:102A3000972E6FE3F62EF822953619F4F0E4FF2A6C
:102A400007C0963619F420E8F22A02C091109A9431
:102A5000F7FE0AC03BE3391518F45CE3B52E02C05B
:102A6000B92CB39427E009C047E0491520F4BB24F2
:102A700047E0942EF7CF292DBB24C60104969D87ED
:102A80008C87F6016081718182819381AE014F5FF5
:102A90005F4F0B2D0E94ED186C010981202E33240D
:102AA00000FF04C003FD02C01DE209C0F1FE02C028
:102AB0001BE205C0F2FC02C010E001C010E2C1013F
:102AC0008C709070892BB9F1112311F483E001C04F
:102AD00084E0881510F088240AC0881AF3FC07C027
:102AE00080E290E0B3010E94EB198A94C9F71123A8
:102AF00029F0812F90E0B3010E94EB1923FE03C05F
:102B00000CE810E00EC000E910E00BC0E114F10485
:102B100009F0805290E0B3010E94EB190F5F1F4F44
:102B200005C0EF2CFF24F0E1EF22FF24F80184918F
:102B3000882361F714C1F7FE12C0BC0C24FE04C048
:102B40008A81813309F4BA941B141CF0BB24B3941A
:102B50002DC0F8E0FB1550F538E0B32E27C0F6FC89
:102B600025C0892D90E08C159D054CF02CEFC216E8
:102B70002FEFD20624F030E8F32A01C09A9499206E
:102B800049F0E2E0F0E0EC0FFD1FE90DF11D80815E
:102B90008033A1F3F7FE0AC0B92CB394892D90E0DD
:102BA000C816D90614F0992401C09C18F7FC03C07C
:102BB00025E030E009C01C141D041CF021E030E0C9
:102BC00003C096012F5F3F4F112311F02F5F3F4F3E
:102BD000992029F0892D90E00196280F391F882D22
:102BE00090E02817390714F0882401C0821A4F2C6E
:102BF0005524C20189709070892B39F008C080E299
:102C000090E0B3010E94EB198A948820C1F7112348
:102C100029F0812F90E0B3010E94EB1943FE07C019
:102C200008C080E390E0B3010E94EB198A948820E9
:102C3000C1F7F7FE46C08601D7FE02C000E010E0F3
:102C400076010894E11CF11CE01AF10A41E050E021
:102C50004C0F5D1FE40EF51E26014B185108892DFF
:102C600090E0AA24BB24A81AB90A5FEF0F3F15070A
:102C700029F48EE290E0B3010E94EB19C016D10650
:102C800034F0401651061CF4F701808101C080E346
:102C9000015010400894E11CF11C0A151B052CF092
:102CA00090E0B3010E94EB19E0CF0C151D0539F43B
:102CB0009A81963318F4953311F424FE81E390E061
:102CC0004BC08A81813309F00F7E90E0B3010E94EE
:102CD000EB199920A1F08EE290E0B3010E94EB196C
:102CE00012E0E1E0F0E0EC0FFD1FE10FF11D1F5FCE
:102CF000808190E0B3010E94EB199A9491F744FC13
:102D000003C085E690E002C085E490E0B3010E9434
:102D1000EB19D7FC05C0C114D10441F404FF06C06F
:102D2000D094C194D108D3948DE201C08BE290E09D
:102D3000B3010E94EB1980E305C08F5F26EF3FEFE0
:102D4000C20ED31E3AE0C316D104BCF790E0B30123
:102D50000E94EB19C601C096B3010E94EB19CC8406
:102D6000DD8452C1933631F0933799F0933509F0F1
:102D700059C023C0F601808189835E010894A11C9B
:102D8000B11C22E030E0C20ED31E21E0E22EF12C75
:102D900012C0F601A080B18016FD03C06FEF7FEF77
:102DA00002C0692D70E022E030E0C20ED31EC501E2
:102DB0000E94E0197C011F7713C0F601A080B1804A
:102DC00016FD03C06FEF7FEF02C0692D70E022E0B7
:102DD00030E0C20ED31EC5010E94C5197C011068E7
:102DE00013FF07C01BC080E290E0B3010E94EB1903
:102DF0008A94882D90E0E816F906A8F30FC0F50133
:102E000017FD859117FF81915F0190E0B3010E944A
:102E1000EB1981108A940894E108F108E114F10497
:102E200071F7F2C0943611F0993689F517FF08C092
:102E3000F601208131814281538184E090E00AC013
:102E4000F601808191819C01442737FD4095542FE4
:102E500082E090E0C80ED91E9FE6F92EF12257FFBE
:102E600009C050954095309521953F4F4F4F5F4F8A
:102E700090E8F92ACA01B901AE014F5F5F4F2AE01D
:102E800030E00E94171AE82EE889EE1A41C0953703
:102E900021F41F7E2AE030E01CC0197F9F3661F0CC
:102EA000903720F4983509F0B2C00FC0903739F050
:102EB000983709F0ACC004C028E030E00AC01061C7
:102EC00014FD146020E130E004C014FD166020E120
:102ED00032E017FF08C0F601608171818281938121
:102EE00044E050E008C0F60180819181BC0180E09F
:102EF00090E042E050E0C40ED51EAE014F5F5F4F40
:102F00000E94171AE82E5889E51A8FE7F82EF12249
:102F1000F6FE0BC08EEFF822E91438F4F4FE07C079
:102F2000F2FC05C09FEEF92202C01E2D01C0192D32
:102F3000F4FE0DC0FE01EE0DF11D8081803319F409
:102F4000E9EEFE2208C01F5FF2FE05C003C08F2D10
:102F5000867809F01F5F0F2DF3FC14C0F0FE0FC040
:102F6000181510F09E2C0BC09E2C980C911A182D41
:102F700006C080E290E0B3010E94EB191F5F1815B4
:102F8000C0F304C0181510F4811A01C0882404FF8E
:102F90000FC080E390E0B3010E94EB1902FF1DC057
:102FA00001FD03C088E790E00EC088E590E00BC00B
:102FB000802F867891F001FF02C08BE201C080E291
:102FC000F7FC8DE290E0B3010E94EB1906C080E3AC
:102FD00090E0B3010E94EB199A94E914C0F3EA94CB
:102FE000E1E0F0E0EC0FFD1FEE0DF11D808190E0BF
:102FF000B3010E94EB19EE2091F706C080E290E049
:10300000B3010E94EB198A948820C1F799CCF3018F
:1030100066817781CB0161960FB6F894DEBF0FBE53
:10302000CDBFCF91DF911F910F91FF90EF90DF9077
:10303000CF90BF90AF909F908F907F906F905F9058
:103040004F903F902F90089597FB092E07260AD0A6
:1030500077FD04D00CD006D000201AF4709561954D
:103060007F4F0895F6F7909581959F4F0895AA1B7D
:10307000BB1B51E107C0AA1FBB1FA617B70710F063
:10308000A61BB70B881F991F5A95A9F78095909595
:10309000BC01CD0108952F923F924F925F926F92A3
:1030A0007F928F929F92AF92BF92CF92DF92EF92D8
:1030B000FF920F931F93CF93DF93CDB7DEB7CA1B59
:1030C000DB0B0FB6F894DEBF0FBECDBF09942A8884
:1030D000398848885F846E847D848C849B84AA842C
:1030E000B984C884DF80EE80FD800C811B81AA81B9
:1030F000B981CE0FD11D0FB6F894DEBF0FBECDBF84
:10310000ED010895AF92BF92CF92DF92EF92FF92BE
:103110000F931F93CF93DF93EC01A880B980CA80EF
:10312000DB80A114B104C104D10441F484E2A82ECF
:1031300089EDB82E8BE5C82E87E0D82EC601B501E3
:103140002DE133EF41E050E00E94941A27EA31E488
:1031500040E050E00E94751A7B018C01C601B50168
:103160002DE133EF41E050E00E94941ACA01B90109
:103170002CEE34EF4FEF5FEF0E94751A6E0D7F1D3E
:10318000801F911F97FF04C061507040804090489D
:10319000688379838A839B839B013F77C901DF9191
:1031A000CF911F910F91FF90EF90DF90CF90BF9044
:1031B000AF9008950E948218089587E892E00E94D7
:1031C00082180895A0E0B0E080938702909388026F
:1031D000A0938902B0938A020895283008F027E06E
:1031E0003327DA01990F311D87FD91600096610543
:1031F000710539F432602E5F3D9330E32A95E1F793
:1032000008959F3F30F080387105610509F03C5FFB
:103210003C5F3D93913008F08068911DDF93CF9320
:103220001F930F93FF92EF92192F987F9695E92F96
:1032300096959695E90FFF27E251FF4F992733277F
:10324000EE24FF24A701E70105900894079428F4D1
:10325000360FE71EF81E491F511D660F771F881F86
:10326000991F0694A1F70590079428F4E70EF81E1D
:10327000491F561FC11D770F881F991F661F06948F
:10328000A1F70590079428F4F80E491F561FC71F91
:10329000D11D880F991F661F771F0694A1F705900F
:1032A000079420F4490F561FC71FD81F990F661F98
:1032B000771F881F0694A9F784911095177041F025
:1032C000D695C79557954795F794E7941A95C1F702
:1032D000E4E9F0E068941590159135916591959128
:1032E00005907FE27395E118F10A430B560BC90B69
:1032F000D009C0F7E10CF11E431F561FC91FD01D96
:103300007EF4703311F48A95E6CFE894015030F0E2
:10331000080F0AF40027021708F4202F2395022F24
:103320007A3328F079E37D932A95E9F710C07D93ED
:103330002A9589F60694979567953795179517946A
:10334000E118F10A430B560BC90BD00998F02395ED
:103350007E9173957A3308F070E37C932013B8F76D
:103360007E9170617D9330F0839571E37D9370E37E
:103370002A95E1F71124EF90FF900F911F91CF91C3
:10338000DF91992787FD90950895FC010590615084
:1033900070400110D8F7809590958E0F9F1F08956B
:1033A000FB01DC0102C001900D9241505040D8F762
:1033B0000895DC0101C06D9341505040E0F708953D
:1033C000FC016150704001900110D8F780959095F4
:1033D0008E0F9F1F08950F931F93CF93DF938C0140
:1033E000EB018B8181FF1BC082FF0DC02E813F81CD
:1033F0008C819D812817390764F4E881F981019354
:10340000F983E88306C0E885F985802F0995892B23
:1034100031F48E819F8101969F838E8302C00FEFCE
:103420001FEFC801DF91CF911F910F910895FA010D
:10343000AA27283051F1203181F1E8946F936E7FF3
:103440006E5F7F4F8F4F9F4FAF4FB1E03ED0B4E0E4
:103450003CD0670F781F891F9A1FA11D680F791F25
:103460008A1F911DA11D6A0F711D811D911DA11D36
:1034700020D009F468943F912AE0269F1124301946
:10348000305D3193DEF6CF010895462F4770405DE1
:103490004193B3E00FD0C9F7F6CF462F4F70405D90
:1034A0004A3318F0495D31FD4052419302D0A9F7EB
:1034B000EACFB4E0A6959795879577956795BA95E5
:1034C000C9F700976105710508959B01AC010A2EAB
:1034D00006945795479537952795BA95C9F7620F82
:1034E000731F841F951FA01D0895629FD001739FB5
:1034F000F001829FE00DF11D649FE00DF11D929F90
:10350000F00D839FF00D749FF00D659FF00D9927CE
:10351000729FB00DE11DF91F639FB00DE11DF91FF2
:10352000BD01CF011124089597FB092E05260ED069
:1035300057FD04D014D00AD0001C38F450954095A3
:10354000309521953F4F4F4F5F4F0895F6F7909577
:103550008095709561957F4F8F4F9F4F0895A1E2A1
:103560001A2EAA1BBB1BFD010DC0AA1FBB1FEE1FFD
:10357000FF1FA217B307E407F50720F0A21BB30B48
:10358000E40BF50B661F771F881F991F1A9469F7C4
:1035900060957095809590959B01AC01BD01CF0120
:0635A0000895F894FFCF2E
:1035A60015002900150029003C001C0041002000E0
:1035B6003030566F6974697400486176697369744E
:1035C60000FE111111FE708888F800FF898989763E
:1035D600FF508888707E818181667088885000FFE0
:1035E6008181827C70888848FFFF8989818170A8E3
:1035F600A8B000FF0909010104FE0901067E8181C8
:103606009176004C92927EFF080808FFFF1008088A
:10361600F081FF81000080F4800000708080807F50
:103626004080807600FE10284482FF20508800FFEC
:1036360080808080FF00000000FF020C02FFF8106F
:10364600E010E0FF061860FFF8100808F07E8181A0
:10365600817E7088888870FF1111110EFF1211117A
:103666000E7E81A141BE0C1212FE00FF1131519E49
:10367600FC0808100046898989724894A44800010C
:1036860001FF010108FC8800007F808040FF7880F0
:103696008040F83F4080403F38408078007F80700F
:1036A600807F7080408070C6281028C6D820D80039
:1036B600000708F008074C90907C00C2A2928A8608
:1036C600C4A4948C007EA191897E82FF800000C2F2
:1036D600A1918986428189897618141211FF4F8932
:1036E6008989717E898989720101C1310F7689893B
:1036F60089764E9191917EC0C000000080600000E6
:103706000010101000000600060000060000000071
:10371600BF0000000006B20E0000280000000000F6
:0C37260000000000000000010000000096
:00000001FF
